:020000040800F2
:100000006850002029030008F14F00080943000848
:10001000ED4F0008350A000879880008000000004C
:10002000000000000000000000000000690200085D
:10003000BF14000800000000C5020008A57D0008EC
:100040004303000843030008430300084303000878
:100050004303000843030008C114000843030008D9
:100060004303000843030008CB14000843030008BF
:10007000090B00084303000843030008430300087A
:100080004303000843030008430300084303000838
:10009000D10A00084303000843030008D5140008F0
:1000A0004303000843030008430300084303000818
:1000B00043030008997E0008430300084303000837
:1000C00043030008430300084303000843030008F8
:1000D0004303000809860008430300081986000846
:1000E00043030008430300084303000843030008D8
:1000F00043030008430300084303000843030008C8
:1001000043030008430300084303000843030008B7
:10011000430300084303000843030008A97E0008C6
:1001200043030008190B0008290B0008C11300083D
:100130004303000843030008430300084303000887
:10014000E10A0008430300084303000843030008D2
:1001500043030008D1130008430300083D8700084B
:100160004303000843030008430300084303000857
:100170004303000843030008430300080000000095
:10018000430300084303000800F002F800F05CF8A5
:100190000AA090E8000C82448344AAF10107DA45E2
:1001A00001D100F051F8AFF2090EBAE80F0013F0D8
:1001B000010F18BFFB1A43F00103184774E7000052
:1001C00094E700000A444FF0000C10F8013B13F0D4
:1001D000070408BF10F8014B1D1108BF10F8015BA0
:1001E000641E05D010F8016B641E01F8016BF9D193
:1001F00013F0080F1EBF10F8014BAD1C0C1B09D1EA
:100200006D1E58BF01F801CBFAD505E014F8016B5B
:1002100001F8016B6D1EF9D59142D6D370470000ED
:100220000023002400250026103A28BF78C1FBD8FF
:10023000520728BF30C148BF0B6070471FB50EF092
:1002400082F91FBD10B510BD00F0C0F91146FFF7CF
:10025000F5FF0BF01FFE00F0DEF903B4FFF7F2FF2D
:1002600003BC09F049FF00002C4B19680868B0E88E
:10027000F04F80F30988BFF36F8F4FF0000080F3D9
:10028000118870470000000008480068006880F38B
:1002900008884FF0000080F3148862B661B6BFF39F
:1002A0004F8FBFF36F8F00DF00BF00BF08ED00E08E
:1002B000DFF80C00016841F470010160704700BF75
:1002C00088ED00E0EFF30980BFF36F8F134B1A68DE
:1002D0001EF0100F08BF20ED108A20E9F04F1060CB
:1002E00009B44FF0500080F31188BFF34F8FBFF374
:1002F0006F8F0DF077F84FF0000080F3118809BC84
:1003000019680868B0E8F04F1EF0100F08BFB0EC95
:10031000108A80F30988BFF36F8F70474001002077
:10032000EFF30580704700000948804709480047FF
:10033000FEE7FEE7FEE7FEE7FEE7FEE7FEE7FEE795
:10034000FEE7FEE704480549054A064B70470000F2
:10035000857E000889010008684A00206850002056
:10036000684C0020684C0020704753EA020C00F0F3
:1003700069802DE9F04B4FF00006002B1FBFB3FA48
:1003800083F503FA05F424FA05F65E4012BF16431E
:10039000B2FA82F502FA05F4C5F120051EBF22FA71
:1003A00005FC44EA0C04203556EA044C4FEA144498
:1003B00018BF641C4FF000084FF00009904271EB29
:1003C000030C39D3002919BFB1FA81F701FA07F6F6
:1003D000B0FA80F700FA07F6C7F120071EBF20FA2F
:1003E00007FC46EA0C062037B6FBF4FCA7EB050732
:1003F000103F07F01F0BCBF120060CFA0BFB2CFA79
:1004000006F644BFB3460026202FA4BF5E464FF039
:10041000000B5BEA060C08BF4FF0010B19EB0B0950
:10042000ABFB027C48EB0608C01B06FB02CC0BFBB7
:1004300003CC71EB0C01C1E70B460246414648462E
:10044000BDE8F08B13B54FF000004FF00001AFF3A3
:100450000080BDE81C40704710B5431C02E010F856
:10046000011B71B18107FAD14FF0013202C88C1A19
:100470008C4314EAC211F9D0C01A0A0603D0C01E78
:1004800010BDC01A10BD0A0401D0801E10BD0902A3
:10049000FCD0401E10BD10B5203AC0F00B80B1E872
:1004A0001850203AA0E81850B1E81850A0E81850A9
:1004B000BFF4F5AF5FEA027C24BFB1E81850A0E8B2
:1004C000185044BF18C918C0BDE810405FEA827CCC
:1004D00024BF51F8043B40F8043B08BF7047D207E3
:1004E00028BF31F8023B48BF11F8012B28BF20F884
:1004F000023B48BF00F8012B704702F0FF0343EABC
:10050000032242EA024200F038B84FF0000200B580
:10051000134694469646203922BFA0E80C50A0E826
:100520000C50B1F12001BFF4F7AF090728BFA0E8D4
:100530000C5048BF0CC05DF804EB890028BF40F8A0
:10054000042B08BF704748BF20F8022B11F0804FE2
:1005500018BF00F8012B704770477047704770470D
:1005600010B500F02FF8006810BD10B5044600F07B
:1005700029F8046010BD4FF000020429C0F0128079
:1005800010F0030C3FF4C3AFCCF1040CBCF1020F2C
:1005900018BF00F8012BA8BF20F8022BA1EB0C011B
:1005A000FFF7B5BF5FEAC17C24BF00F8012B00F85C
:1005B000012B48BF00F8012B70470000004870472E
:1005C000044A002000487047044A00207546FFF79F
:1005D000F5FFAE4605006946534620F00700854604
:1005E00018B020B5FFF7AEFEBDE820404FF0000682
:1005F0004FF000074FF000084FF0000B21F007010B
:10060000AC46ACE8C009ACE8C009ACE8C009ACE84D
:10061000C0098D46704710B50446AFF300802046F0
:10062000BDE81040FFF719BE10B5012210210248A5
:1006300001F0C4FF10BD00000000024010B5002210
:100640001021024801F0BAFF10BD00000000024076
:100650007047000010B501221146024801F0AEFFBC
:1006600010BD00000004024010B500220121024824
:1006700001F0A4FF10BD00000004024010B5437853
:100680001B021BB20478234300EE103AB8EEC01AE6
:100690001C4BD3ED001A21EE211A81ED001AC3780C
:1006A0001B021BB28478234300EE103AB8EEC01A46
:1006B000144BD3ED001A21EE211A81ED011A437972
:1006C0001B021BB20479234300EE103AB8EEC01AA5
:1006D0000C4BD3ED001A21EE211A81ED021A037A98
:1006E0001B04C47943EA04238479234300EE903A3F
:1006F000B8EE601ADFED041A21EE211A82ED001A1D
:1007000010BD00000001002000401C42704710B5E1
:10071000044603E04FF47A7000F006F8201EA4F1BE
:1007200001018CB2F6D110BD70B5034600BF00BF09
:100730000020002200BF4FF0E0267569A82603FBC9
:1007400006F44FF0E026B16910E04FF0E026B06902
:1007500088420BD0884202D20E1A324402E02E1A8E
:100760000E4432440146A24200D300E0EDE700BF50
:1007700070BD00004278120212B203781A4300EEF4
:10078000102AF8EEC00A144A92ED001A60EE810AAF
:10079000C1ED000AC278120212B283781A4300EE49
:1007A000102AF8EEC00A0C4A92ED001A60EE810A97
:1007B000C1ED010A4279120212B203791A4300EE26
:1007C000102AF8EEC00A044A92ED001A60EE810A7F
:1007D000C1ED020A704700000401002010B500249A
:1007E000FFF736FFFFF792FF09F076FD10B144F0F6
:1007F000800402E009F0D6FC044309F065FF10B163
:1008000044F0400402E009F0E5FE0443204610BD38
:100810002DE9FC4105460E46174600200090019048
:10082000FFF70CFF922000F0D1F806226946122053
:1008300000F0ACF8FFF7F8FE9DF80100000200B2EE
:100840009DF8001040EA010400EE104AB8EEC00A1C
:100850004C48D0ED000A20EE200A86ED000A9DF8F3
:100860000300000200B29DF8021040EA010400EE0D
:10087000104AB8EEC00A4348D0ED000A20EE200A24
:1008800086ED010A9DF80500000200B29DF80410F3
:1008900040EA010400EE104AB8EEC00A3948D0ED33
:1008A000000A20EE200A86ED020AFFF7DDFE08228C
:1008B0006946002000F06AF8FFF7CCFE9DF80000C2
:1008C0000F2838D19DF80300000200B29DF80210F5
:1008D00040EA010400EE104AB8EEC00A2A48D0ED02
:1008E000000A20EE200A85ED000A9DF805000002AE
:1008F00000B29DF8041040EA010400EE104AB8EE80
:10090000C00A2148D0ED000A20EE200A85ED010A38
:100910009DF80700000200B29DF8061040EA0104AD
:1009200000EE104AB8EEC00A1748D0ED000A20EEDB
:10093000200A85ED020AFFF781FEA22000F046F8AA
:1009400002226946222000F021F8FFF76DFE9DF893
:100950000000C0009DF8011040EA6114B4F5806FFA
:1009600002DBA4F5006004B200EE104AF8EEC00A03
:10097000B4EE001AB3EE070A00EE810A87ED000A12
:10098000BDE8FC81000100200401002070B506468E
:100990000C46154646F0800000F018F806E0552099
:1009A00000F014F82070641C681EC5B2002DF6D14A
:1009B00070BD70B504460D4644F0800000F006F8A6
:1009C000552000F003F8287070BD000001B582B01A
:1009D0004FF47A70012301AA02A90090024802F0A4
:1009E00003FC9DF804000EBD4C04002010B5024627
:1009F0001378DB00547843EA6410B0F5806F02DBB3
:100A0000A0F5006318B200EE100AF8EEC00AB4EECA
:100A1000001AB3EE070A00EE810A81ED000A10BD4C
:100A200070B505460C462846FFF7D0FF2046FFF775
:100A3000CDFF70BD00BFFEE7C8200CF001FC0AF03E
:100A400023F83BE01E480078012802D11D480078B9
:100A500030B11B48007850B91A480078012806D1F7
:100A60000AF01AF817480078401C16490870144814
:100A7000007840B913480078022804D10AF004F83D
:100A800000201049087010484078012807D10F480D
:100A9000007820B909F0F8FF01200C4908700A48D5
:100AA000407840B909480078012804D109F0ECFFEA
:100AB00000200649087064200CF0C2FBC2E7000069
:100AC000B4000020D4000020FD000020D50000204C
:100AD00010B5024800F016FF10BD0000FC03002016
:100AE00010B5024800F00EFF10BD000024040020E5
:100AF00009F0E8FF06E00AF025F80AF09BF801206B
:100B00000CF09EFBF7E7000010B5024801F05CFA1C
:100B100010BD0000A807002010B5024801F054FAEB
:100B200010BD00000808002010B5FE48C06C006829
:100B3000FD49884276D9FC4854380068F949C96CA7
:100B40000968FA4A914201D1202169E0F549C96C4E
:100B50000968F54A483A914201D1202160E0F14903
:100B6000C96C0968F14A6032914201D1202157E0F5
:100B7000EC49C96C0968EC4A1832914201D1202134
:100B80004EE0E849C96C0968E84A1832914201D13F
:100B9000C91445E0E349C96C0968E34A303A914217
:100BA00001D1C9143CE0DF49C96C0968DF4A7832D9
:100BB000914201D1C91433E0DA49C96C0968DA4AB3
:100BC0003032914201D1C9142AE0D649C96C096872
:100BD000D64A3032914202D14FF4001120E0D1497F
:100BE000C96C0968D04A183A914202D14FF40011F9
:100BF00016E0CC49C96C0968CC4A9032914202D1C6
:100C00004FF400110CE0C749C96C0968C64A483264
:100C1000914203D14FF4001102E003E04FF0006174
:100C2000084070E1BF48C06C0068C049A8318842E4
:100C300076D9BD4858380068BA49C96C0968BB4ABA
:100C4000914201D1202169E0B649C96C0968B64AD0
:100C5000483A914201D1202160E0B249C96C09684B
:100C6000B24A6032914201D1202157E0AD49C96CAE
:100C70000968AD4A1832914201D120214EE0A949BC
:100C8000C96C0968A94A1832914201D1C91445E0DA
:100C9000A449C96C0968A44A303A914201D1C914E7
:100CA0003CE0A049C96C0968A04A7832914201D160
:100CB000C91433E09B49C96C09689B4A30329142A0
:100CC00001D1C9142AE09749C96C0968974A3032A2
:100CD000914202D14FF4001120E09249C96C096899
:100CE000914A183A914202D14FF4001116E08D4911
:100CF000C96C09688D4A9032914202D14FF40011BB
:100D00000CE08849C96C0968874A4832914203D18E
:100D10004FF4001102E003E04FF000610840F2E000
:100D20008048C06C006881494831884276D97F4844
:100D3000103840687B49C96C09687C4A914201D1EE
:100D4000202169E07749C96C0968774A483A91429D
:100D500001D1202160E07349C96C0968734A60328F
:100D6000914201D1202157E06E49C96C09686E4A51
:100D70001832914201D120214EE06A49C96C0968BC
:100D80006A4A1832914201D1C91445E06549C96CDB
:100D90000968654A303A914201D1C9143CE0614981
:100DA000C96C0968614A7832914201D1C91433E0B3
:100DB0005C49C96C09685C4A3032914201D1C9145E
:100DC0002AE05849C96C0968584A3032914202D128
:100DD0004FF4001120E05349C96C0968524A183A8F
:100DE000914202D14FF4001116E04E49C96C0968D6
:100DF0004E4A9032914202D14FF400110CE0494921
:100E0000C96C0968484A4832914203D14FF4001135
:100E100002E003E04FF00061084074E043481038FE
:100E200000684049C96C0968404A914201D12021BB
:100E300068E03C49C96C09683B4A483A914201D193
:100E400020215FE03749C96C0968384A6032914215
:100E500001D1202156E03349C96C0968324A183261
:100E6000914201D120214DE02E49C96C09682F4AD9
:100E70001832914201D1C91444E02A49C96C096869
:100E8000294A303A914201D1C9143BE02549C96C45
:100E90000968264A7832914201D1C91432E02149C9
:100EA000C96C0968204A3032914201D1C91429E045
:100EB0001C49C96C09681D4A3032914202D14FF475
:100EC00000111FE01749C96C0968174A183A914286
:100ED00002D14FF4001115E01249C96C0968134A98
:100EE0009032914202D14FF400110BE00D49C96CD0
:100EF00009680D4A4832914202D14FF4001101E0D5
:100F00004FF00061084000286FD00648C06C0068B0
:100F1000054988427BD90348C06C00680349884270
:100F200008D105E04C0400205864024010600240E3
:100F3000202068E0FE48C06C0068FE49884201D16C
:100F4000202060E0FA48C06C0068FB49884201D16B
:100F5000202058E0F648C06C0068F64960318842AD
:100F600001D120204FE0F248C06C0068F2494839B6
:100F7000884201D1C01446E0ED48C06C0068ED49DC
:100F80001831884201D1C0143DE0E948C06C0068C6
:100F9000E9491831884201D1C01434E0E448C06CFA
:100FA0000068E4497831884201D1C0142BE0E04860
:100FB000C06C0068E0493039884202D14FF400101B
:100FC00021E0DB48C06C0068DA493031884202D148
:100FD0004FF4001017E0D648C06C0068D649303195
:100FE000884204D14FF400100DE0DFE10FE0D0485B
:100FF000C06C0068CF499031884202D14FF4001094
:1010000001E04FF00060CB49091F08606AE1C84861
:10101000C06C0068C8494831884274D9C448C06C63
:101020000068C5496039884201D1202066E0C04887
:10103000C06C0068BF49884201D120205EE0BC48F6
:10104000C06C0068BC49884201D1202056E0B848F5
:10105000C06C0068B7496031884201D120204DE062
:10106000B348C06C0068B4494839884201D1C01403
:1010700044E0AF48C06C0068AE491831884201D1E5
:10108000C0143BE0AA48C06C0068AB4918318842E4
:1010900001D1C01432E0A648C06C0068A54978317F
:1010A000884201D1C01429E0A148C06C0068A2495F
:1010B0003039884202D14FF400101FE09C48C06CC8
:1010C00000689C493031884202D14FF4001015E08D
:1010D0009748C06C006898493031884202D14FF47B
:1010E00000100BE09248C06C006892499031884231
:1010F00002D14FF4001001E04FF000608D49083933
:101100000860EFE0FFE78A48C06C00688A49183938
:10111000884274D98648C06C006887496039884223
:1011200001D1202066E08248C06C00688149884275
:1011300001D120205EE07E48C06C00687E49884274
:1011400001D1202056E07A48C06C006879496031AE
:10115000884201D120204DE07548C06C0068764976
:101160004839884201D1C01444E07148C06C00681D
:1011700070491831884201D1C0143BE06C48C06C02
:1011800000686D491831884201D1C01432E06848C6
:10119000C06C006867497831884201D1C01429E0E9
:1011A0006348C06C006864493039884202D14FF40A
:1011B00000101FE05E48C06C00685E493031884214
:1011C00002D14FF4001015E05948C06C00685A492C
:1011D0003031884202D14FF400100BE05448C06C0B
:1011E000006854499031884202D14FF4001001E068
:1011F0004FF0006050497039C86073E0FFE74C4819
:10120000C06C00684C496039884201D1202066E0FA
:101210004748C06C00684749884201D120205EE001
:101220004348C06C00684449884201D1202056E000
:101230003F48C06C00683F496031884201D120209E
:101240004DE03B48C06C00683B494839884201D1B9
:10125000C01444E03648C06C0068364918318842F2
:1012600001D1C0143BE03248C06C006832491831EB
:10127000884201D1C01432E02D48C06C00682D496D
:101280007831884201D1C01429E02948C06C006837
:1012900029493039884202D14FF400101FE0244818
:1012A000C06C006823493031884202D14FF40010ED
:1012B00015E01F48C06C00681F493031884202D1D8
:1012C0004FF400100BE01A48C06C006819499031C7
:1012D000884202D14FF4001001E04FF0006016493F
:1012E000703988601548007800F0020078B1134822
:1012F000007820F00200114908700846007840F09C
:1013000004000870012211460D4801F057F90D48FC
:10131000007800F00200E0B10A48007820F00200F6
:10132000084908700846007840F0040008700BE097
:101330004C04002010640240706002405D000020F8
:10134000000402405E00002001221021184801F034
:1013500035F91848007800F0020078B11548007897
:1013600020F00200134908700846007840F004009D
:101370000870012210210E4801F020F90AF05CFCEF
:101380000D48007800F0040080B10B48007820F090
:101390000400094908700846007840F00800087009
:1013A0000648006840F001000449086010BD0000D4
:1013B000000002405F0000205D000020103C014062
:1013C00010B5024800F000FE10BD00005C050020D2
:1013D00010B5024800F0F8FD10BD000068080020BC
:1013E0000146087810381823B0FBF3F20848805CF7
:1013F000C865032A05D908686FF30900001D8865D0
:1014000003E008686FF309008865886D7047000085
:101410003CE60008014600208A6A8B69CBB932B1EC
:10142000012A0DD0022A03D0032A10D10EE000BFFA
:10143000CB6A03F08073B3F1807F00D1012007E015
:10144000CB6AB3F1C07F00D1012001E000E000BF12
:1014500034E08B69B3F5005F1AD132B1012A07D0AD
:10146000022A03D0032A11D10AE000BF01200EE0B6
:10147000CB6A03F08073B3F1807F00D1012006E0D6
:10148000CB6AB3F1C07F00D1012000E000BF15E0BE
:1014900032B1012A05D0022A04D0032A0CD103E07C
:1014A00000BF00BF012008E0CB6A03F08073B3F1F6
:1014B000807F00D1012000E000BF00BF704770476F
:1014C00010B5012000F072FF10BD10B5102000F023
:1014D0006DFF10BD10B5202000F068FF10BD72B682
:1014E00000BFFEE710B5024692F82030012B01D074
:1014F000022B06D11068406908431468606100201F
:1015000010BD506A40F4802050620120F8E7F0B529
:1015100004460D461E4694F8207020688368A8682B
:1015200000B900E000BF012F01D0022F7CD103F0F1
:10153000806030B903F0006018B903F080500028D3
:1015400073D0C3F30161022905D9606A40F4000039
:1015500060620120F0BD012088403060A86860B959
:10156000B5F800C0E86840EA4C5C206800F5C0703F
:1015700000EB0110C0F800C00FE0D5E901C040EA5F
:10158000CC00D5F80CC040EA0C00D4F800C00CF533
:10159000C07C0CEB011CCCF80000D5F810C0206812
:1015A00000F5C07000EB0110C0F804C0287D0128D0
:1015B0000ED1206800F5C07000EB0110406840F4C7
:1015C000807C206800F5C07000EB0110C0F804C0FA
:1015D000D079000692F806C040EA0C4092F805C0A7
:1015E00040EA0C2C10794CEA000C206800F5C07021
:1015F00000EB0110C0F80CC0D078000692F802C0D1
:1016000040EA0C4092F801C040EA0C2092F800C079
:1016100040EA0C00D4F800C00CF5C07C0CEB011CB7
:10162000CCF80800206801E016E00FE000F5C0707B
:1016300000EB0110006840F0010C206800F5C0705C
:1016400000EB0110C0F800C0002083E7606A40F49E
:101650000010606201207DE7606A40F480206062D3
:10166000012077E7F0B504460A46216894F8205037
:10167000012D01D0022D7ED1424901F5007108688B
:1016800040F001000860086820F47C500860086899
:10169000566A40EA06200860107D00F01F0601200F
:1016A00000FA06F3C8699843C861A1F50071D069D2
:1016B000C8B9D1F80C029843C1F80C02908880B2E6
:1016C000968940EA064601F51070576940F8376080
:1016D000108880B2168940EA064601F510705769F5
:1016E00000EBC7004660D069012819D1D1F80C027F
:1016F0001843C1F80C02908880B2168840EA06466A
:1017000001F51070576940F83760908980B21689EA
:1017100040EA064601F51070576900EBC7004660C5
:10172000906928B9D1F804029843C1F8040204E092
:10173000D1F804021843C1F80402106928B9D1F89D
:1017400014029843C1F8140204E0D1F814021843BB
:10175000C1F81402106A012804D1D1F81C02184300
:10176000C1F81C02D1F8000220F00100C1F800020B
:101770000020F0BDFFE7606A40F480206062012035
:10178000F7E7000000640040704770B5044694F825
:101790002050012D01D0022D7DD151B92068C068A3
:1017A00000F0030080B9606A40F40010606201201C
:1017B00070BD2068006900F0030028B9606A40F439
:1017C000001060620120F3E7206800F5D87000EB9C
:1017D0000110006800F004009060906840B9206833
:1017E00000F5D87000EB01100068400D106007E0B4
:1017F000206800F5D87000EB01100068C008506048
:10180000206800F5D87000EB0110006800F00200BD
:10181000D060206800F5D87000EB0110406800F03F
:101820000F001061206800F5D87000EB01104068CF
:1018300000F47F40000A9061206800F5D87000EB4A
:1018400001104068000C5061206800F5D87000EB72
:10185000011080681870206800F5D87000EB011046
:10186000806800F47F40000A5870206800F5D87046
:1018700000EB0110806800F47F00000C9870206875
:1018800000F5D87000EB01108068000ED870206859
:1018900000F5D87000E02FE000EB0110C06818716F
:1018A000206800F5D87000EB0110C06800F47F409C
:1018B000000A5871206800F5D87000EB0110C0686C
:1018C00000F47F00000C9871206800F5D87000EBE0
:1018D0000110C068000ED87131B92068C06840F0AE
:1018E00020002668F06005E02068006940F02000D4
:1018F0002668306100205BE7606A40F48020606207
:10190000012055E72DE9F05F04460025206846696F
:101910002068D0F80490206887682068D0F80CA070
:101920002068D0F810B02068D0F8188006F00100C8
:10193000002855D007F00100C0B10120216888605F
:1019400007F0020018B1204600F0CDFA0EE007F0D3
:10195000040010B145F4006508E007F0080010B17C
:1019600045F4805502E0204600F0BCFA07F4807090
:10197000C8B14FF480702168886007F4007018B116
:10198000204600F0B2FA0EE007F4806010B145F492
:10199000005508E007F4006010B145F4804502E00E
:1019A000204600F0A1FA07F48030C8B14FF480302F
:1019B0002168886007F4003018B1204600F097FADB
:1019C0000EE007F4802010B145F4004508E007F46C
:1019D000002010B145F4803502E0204600F086FA80
:1019E00006F0080038B10AF0100020B145F4007587
:1019F00010202168C86006F0040040B10AF0080019
:101A000028B108202168C860204600F00DFA06F0D1
:101A1000020038B12068C06800F0030010B1204611
:101A200000F004FA06F0400038B10BF0100020B1CD
:101A300045F4806510202168086106F0200040B15F
:101A40000BF0080028B1082021680861204600F04A
:101A500017FA06F0100038B12068006900F00300A2
:101A600010B1204600F00DFA06F4003040B109F044
:101A7000100028B1102021684860204600F002FACA
:101A800006F4803040B109F0080028B10820216830
:101A90004860204600F02CFA06F4004088B309F0B4
:101AA000040078B306F4807020B108F0010008B19A
:101AB00045F0010506F4007020B108F0020008B1FD
:101AC00045F0020506F4806020B108F0040008B17A
:101AD00045F0040506F40060A0B108F0700088B17C
:101AE00008F07000402817D006DC10280BD0202802
:101AF0000CD0302819D10CE0502810D0602814D117
:101B000010E01DE019E045F008050FE045F0100574
:101B10000CE045F0200509E045F0400506E045F001
:101B2000800503E045F4807500E000BF00BF206839
:101B3000806920F070002168886104202168486075
:101B40002DB1606A284360622046FFF71DFEBDE8A4
:101B5000F09F70B504460CB9012070BD94F82000C8
:101B600010B9204600F0B0F82068006840F001008D
:101B70002168086000F028FD05460DE000F024FD16
:101B8000401B0A2808D9606A40F4003060620520D2
:101B900084F820000120E0E72068406800F00100A0
:101BA0000028EBD02068006820F00200216808605F
:101BB00000F00AFD05460DE000F006FD401B0A2876
:101BC00008D9606A40F400306062052084F8200083
:101BD0000120C2E72068406800F002000028EBD135
:101BE000207E012806D12068006840F0800021682E
:101BF000086005E02068006820F080002168086027
:101C0000607E012806D12068006840F0400021680D
:101C1000086005E02068006820F040002168086046
:101C2000A07E012806D12068006840F020002168CD
:101C3000086005E02068006820F020002168086046
:101C4000E07E012806D12068006820F0100021689D
:101C5000086005E02068006840F010002168086016
:101C6000207F012806D12068006840F00800216824
:101C7000086005E02068006820F00800216808601E
:101C8000607F012806D12068006840F004002168C8
:101C9000086005E02068006820F004002168086002
:101CA000D4E9020108432169084361690843616876
:101CB000491E08432168C86100206062012084F841
:101CC0002000002049E7000010B586B0044614212A
:101CD00001A8FEF71AFC4E492068884241D14D48C0
:101CE0000068401C4B4908600846006801280FD175
:101CF00000BF002000904848006840F0007046494E
:101D000008600846006800F00070009000BF00BF47
:101D100000BF0020009040481038006840F00800E4
:101D20003D49103908600846006800F0080000903E
:101D300000BF00BF0320019002200290002003900A
:101D4000032004900920059001A9344800F03CFBD1
:101D500000220521142000F0FBFC142000F0E8FC18
:101D600054E02F492068884250D100BF00200090E5
:101D70002948006840F080602749086008460068EC
:101D800000F08060009000BF00BF22480068401C47
:101D9000204908600846006801280FD100BF0020D4
:101DA00000901D48006840F000701B49086008461C
:101DB000006800F00070009000BF00BF00BF00206E
:101DC000009015481038006840F0020012491039A0
:101DD00008600846006800F00200009000BF00BFE5
:101DE00060200190022002900020039003200490C4
:101DF0000920059001A90B4800F0E6FA0022052110
:101E0000402000F0A5FC402000F092FC06B010BD80
:101E1000006400402000002040380240000C0240D6
:101E200000680040000402407047000010B58AB00E
:101E3000044601AB03AA00212046FFF7A6FC0D488B
:101E4000844214D1039815280AD0A0F2012060B969
:101E500001A9094809F0DAFE074802F017FD05E07C
:101E600001A9064809F09AFE00E000BF00BF0AB0D1
:101E700010BD0000FC030020080C00201C0C0020FA
:101E800070477047704770B5044694F820000128E9
:101E900022D1022084F820002068006820F0010090
:101EA0002168086000F090FB05460DE000F08CFB17
:101EB000401B0A2808D9606A40F40030606205209F
:101EC00084F82000012070BD2068406800F0010007
:101ED0000028EBD16062F6E7606A40F4002060629F
:101EE0000120F0E7704770477047704770477047B0
:101EF000704770B50446A56D00F066FB064694F881
:101F00003500022808D08020606500BF002084F8DA
:101F1000340000BF012070BD2068006820F016006A
:101F2000216808602068406920F0800021684861CD
:101F3000206C08B9A06C28B12068006820F0080067
:101F4000216808602068006820F0010021680860AE
:101F500010E000F039FB801B05280BD920206065BC
:101F6000032084F8350000BF002084F8340000BF4F
:101F70000320D0E72068006800F001000028E8D1C5
:101F800094F85C103F208840A860012084F8350058
:101F900000BF002084F8340000BF00BFBBE701464B
:101FA00091F83500022803D0802048650120704751
:101FB000052081F835000868006820F001000A68F3
:101FC00010600020F3E70000F8B504460020009000
:101FD0008C4800684FF41651B0FBF1F7A56D2E68E0
:101FE00094F85C1008208840304098B12068006860
:101FF00000F0040070B12068006820F0040021683F
:10200000086094F85C1008208840A860606D40F07B
:102010000100606594F85C1001208840304068B190
:102020002068406900F0800040B194F85C10012005
:102030008840A860606D40F00200606594F85C1014
:1020400004208840304068B12068006800F0020039
:1020500040B194F85C1004208840A860606D40F0A6
:102060000400606594F85C1010208840304078B31C
:102070002068006800F0080050B394F85C1010204D
:102080008840A8602068006800F4802080B1206843
:10209000006800F4002028B9206CC8B12046216CEB
:1020A000884715E0A06C98B12046A16C88470FE0E6
:1020B0002068006800F4807028B92068006820F06B
:1020C000080021680860206C10B12046216C884708
:1020D00094F85C10202088403040002865D02068AB
:1020E000006800F0100000285FD094F85C102020F9
:1020F0008840A86094F83500052828D12068006839
:1021000020F01600216808602068406920F08000F7
:1021100021684861206C08B9A06C28B1206800686B
:1021200020F008002168086094F85C103F20884087
:10213000A860012084F8350000BF002084F8340036
:1021400000BF206D10B12046216D8847F8BD206882
:10215000006800F4802080B12068006800F400204E
:1021600028B9606C10B12046616C88471DE0E06BB7
:10217000D8B12046E16B884717E02068006800F47A
:10218000807068B92068006820F01000216808603D
:10219000012084F8350000BF002084F8340000BF1F
:1021A000E06B10B12046E16B8847606D38B3606D1D
:1021B00000F00100F0B1052084F8350020680068C7
:1021C00020F001002168086000BF0098401C0090CA
:1021D000B84200D905E02068006800F0010000283E
:1021E000F3D100BF012084F8350000BF002084F83F
:1021F000340000BFE06C10B12046E16C884700BF9E
:10220000A4E70000300000202DE9F041044600253D
:1022100000F0DAF9074614B90120BDE8F081606AE0
:1022200000B100BF022084F8350000BF002084F810
:10223000340000BF2068006820F0010021680860B9
:102240000AE000F0C1F9C01B052805D9202060650F
:10225000032084F83500E0E72068006800F0010002
:102260000028EED12068056821480540D4E9010125
:102270000843E16808432169084361690843A1698B
:102280000843E1690843216A08430543606A04285A
:1022900003D1D4E90B010843054320680560206899
:1022A000456925F00705606A0543606A04280DD179
:1022B000A06A0543E06A48B12046FFF7ABF828B1B1
:1022C00040206065012084F83500A6E7206845615C
:1022D0002046FFF785F8064694F85C103F208840BA
:1022E000B06000206065012084F83500002094E78C
:1022F0003F8010F070B5044600F066F906462546AA
:10230000681C10B104480078054400BF00F05CF977
:10231000801BA842FAD370BD2C00002010B50446E3
:10232000102C11D11A48007840F0010018490870AB
:102330001848007840F001001649087016480078E7
:1023400028B309F079FC22E0202C0BD11348007847
:1023500040F00100114908700F480078B8B109F049
:102360006BFC14E0012C12D10BF09AF901280ED06D
:102370000B490C4800680AF08BFF0948006830B12F
:10238000200709490860BFF34F8FBFF36F8F10BD5F
:102390005E0000205F000020600000205D00002043
:1023A0008C0000203800002004ED00E010B5044649
:1023B00004480068204020B1024804602046FFF72E
:1023C000ADFF10BD143C0140F8B502460B46002598
:1023D000002400200021D6E0012606FA01F51E683F
:1023E00006EA0504AC4274D11E7906F00306012EFC
:1023F00004D01E7906F00306022E13D190684F0018
:102400000326BE40B0434F00DE68BE4030439060BC
:10241000506801268E40B0431E79C6F300168E40E8
:10242000304350601E7906F00306032E09D0D068B1
:102430004F000326BE40B0434F009E68BE4030436D
:10244000D0601E7906F00306022E13D1CF0802F1E8
:10245000200656F827004E07F70E0F26BE40B04361
:102460004F07FF0E1E69BE403043CF0802F1200621
:1024700046F8270010684F000326BE40B0431E797F
:1024800006F003064F00BE40304310605E6806F45D
:102490004036002E76D000BF002600963C4E3668AF
:1024A00046F480463A4F3E603E46366806F4804623
:1024B000009600BF00BF374E8F0856F827008E07E2
:1024C000370F0F26BE40B043334EB24202D1002632
:1024D00024E057E0314EB24201D101261EE0304ED9
:1024E000B24201D1022619E02E4EB24201D103269A
:1024F00014E02D4EB24201D104260FE02B4EB24221
:1025000001D105260AE02A4EB24201D1062605E095
:10251000284EB24201D1072600E008268F073F0F60
:10252000BE4030431B4E8F0846F82700224E3068CD
:10253000A0435E6806F4801606B120431E4E30604C
:10254000361D3068A0435E6806F4001606B12043CD
:10255000194E361D3060184E361F3068A0435E6835
:1025600006F4003606B12043134E361F3060361F86
:102570003068A0435E6806F4803606B120430E4EF4
:10258000083E3060491C1029FFF426AFF8BD00005A
:102590004438024008380140000002400004024074
:1025A00000080240000C02400010024000140240EB
:1025B00000180240001C0240083C01400AB1816141
:1025C00001E00B0483617047014800687047000018
:1025D00024000020034800680349097808440149A1
:1025E00008607047240000202C00002010B50D4822
:1025F000006840F400700B4908600846006840F429
:10260000806008600846006840F48070086003201D
:1026100000F0DCF80F2000F007F800F05FF8002071
:1026200010BD0000003C02402DE9F04188B0044696
:102630000027B84600BF002001902348006840F002
:102640000200214908600846006800F0020001907D
:1026500000BF00BF02A903A800F08EF9069F1FB9B2
:1026600000F0B2F9054602E000F0AEF94500174867
:10267000B5FBF0F0A0F1010815481649086040F2DA
:10268000E7311448C160C0F8048000210161816015
:10269000816100F01BFF064696B90E4800F09CFFD2
:1026A00006466EB91D2000F043F8102C07D2002218
:1026B00021461D2000F04CF80748046000E0012688
:1026C000304608B0BDE8F0814038024040420F007B
:1026D00000040040C80800202800002008B500BF02
:1026E000002000901148006840F480400F490860C5
:1026F0000846006800F48040009000BF00BF00BFA3
:1027000000200090081F006840F08050091F0860FA
:102710000846006800F08050009000BF00BF002213
:102720000F21901E00F014F808BD0000443802404C
:1027300001460846002809DB00F01F0301229A40E9
:1027400043099B0003F1E023C3F8002100BF704759
:102750002DE9F05F80460D461646002706F0BAF8D0
:10276000074639462A46334601F00700C0F1070AFA
:10277000BAF1040F02D94FF0040A01E0C0F1070AD0
:10278000D14600F1040ABAF1070F02D24FF0000A55
:1027900001E0A0F1030AD4464FF0010A0AFA09FA4F
:1027A000AAF1010A0AEA020A0AFA0CFA4FF0010B2E
:1027B0000BFA0CFBABF1010B0BEA030B4AEA0B041F
:1027C0002146404606F08EF8BDE8F09F00BF00F0BD
:1027D0000702064B19684FF6FF031940044B0B43E1
:1027E00043EA0221014B196000BF70470CED00E085
:1027F0000000FA0570B504460D460CB9012070BD05
:102800005848006800F00700A84209D255490D70E9
:102810000846006800F00700A84201D00120EEE75A
:10282000207800F0020002281DD1207800F004007A
:10283000042805D14C48006840F4E0504A4908603B
:10284000207800F00800082805D14748006840F4C7
:102850006040454908604448006820F0F000A168E5
:10286000084341490860207800F00100A8B360687F
:10287000012807D13C4808380068C0F34040B8B987
:102880000120BCE76068022802D06068032807D1F5
:10289000354808380068C0F3406048B90120AEE709
:1028A000314808380068C0F3400008B90120A6E7A5
:1028B0002D48006820F00300616808432A49086039
:1028C000FFF782FE064609E0FFF77EFE801B41F21D
:1028D0008831884202D9032091E707E02248006846
:1028E00000F00C006168B0EB810FEDD11D4800686D
:1028F00000F00700A84209D91A490D70084600687F
:1029000000F00700A84201D0012078E7207800F00D
:102910000400042807D11448006820F4E050E1685E
:10292000084311490860207800F00800082808D101
:102930000D48006820F46040216940EAC1000A495E
:10294000086000F061F808490968C1F30311074AFB
:10295000515CC8400649086006480068FFF764FEFD
:1029600000204CE7003C02400838024044E60008E2
:1029700030000020280000200F2202600D4A12685B
:1029800002F0030242600B4A126802F0F002826019
:10299000084A126802F4E052C260064A126802F461
:1029A0006042D2080261044A126802F007020A601B
:1029B0007047000008380240003C024001480068AF
:1029C000704700003000002000B5FFF7F7FF044912
:1029D0000968C1F38221034A515CC84000BD000070
:1029E0000838024054E6000800B5FFF7E7FF044945
:1029F0000968C1F34231034A515CC84000BD000080
:102A00000838024054E600082DE9F047002400256C
:102A10000026A1462548006800F00C0020B10428DB
:102A200005D008283AD105E0DFF8849039E0DFF8D6
:102A3000849036E01D48001F006800F03F041B48EA
:102A4000001F006800F4800078B11A481749091F78
:102A50000968C1F38811A0FB0170014622460023DA
:102A60003846FDF782FC05460EE011480F49091F64
:102A70000968C1F38811A0FB0170014622460023BA
:102A80003846FDF772FC05460848001F0068C0F391
:102A90000140401C4600B5FBF6F902E0DFF810905B
:102AA00000BF00BF4846BDE8F0870000083802407C
:102AB0000024F400001BB700F8B504460CB901204F
:102AC000F8BD207800F00100002874D0F9480068B3
:102AD00000F00C0004280DD0F648006800F00C004F
:102AE000082813D1F348001F006800F48000B0F5F7
:102AF000800F0BD1EF4808380068C0F34040002831
:102B000059D06068002856D10120D9E700BF60681D
:102B1000B0F5803F08D1E7480838006840F48030BD
:102B2000E449083908601EE06068B0F5A02F0DD1B7
:102B3000E0480838006840F48020DE490839086021
:102B40000846006840F4803008600CE0D948083836
:102B5000006820F48030D7490839086008460068CA
:102B600020F48020086000BF606890B1FFF72CFD62
:102B7000054606E0FFF728FD401B642801D9032025
:102B80009EE7CC4808380068C0F340400028F1D0E8
:102B900011E0FFF719FD054606E0FFF715FD401BA4
:102BA000642801D903208BE7C24808380068C0F3C5
:102BB00040400028F1D1207800F0020002285FD1C7
:102BC000BC48006800F00C0058B1BA48006800F03A
:102BD0000C0008281CD1B748001F006800F48000D2
:102BE000B0B9B44808380068C0F3400020B1E068CC
:102BF000012801D0012063E7AE480838006820F0C2
:102C0000F800216940EAC100AA490839086037E0A4
:102C1000E06800B30120A8490860FFF7D5FC05462D
:102C200006E0FFF7D1FC401B022801D9032047E74B
:102C3000A04808380068C0F340000028F1D09D4843
:102C40000838006820F0F800216940EAC10099497D
:102C50000839086014E0002097490860FFF7B4FCC9
:102C6000054606E0FFF7B0FC401B022801D903200F
:102C700026E7904808380068C0F340000028F1D1EA
:102C8000207800F0080008282CD16069A8B1012044
:102C90008A490860FFF798FC054606E0FFF794FCB8
:102CA000401B022801D903200AE782486C300068E3
:102CB000C0F340000028F1D014E000207F490860F4
:102CC000FFF782FC054606E0FFF77EFC401B02286A
:102CD00001D90320F4E677486C300068C0F3400067
:102CE0000028F1D1207800F00400042870D10027DA
:102CF00070483830006800F0805090B900BF002064
:102D000000906C483830006840F080506949383194
:102D100008600846006800F08050009000BF00BFC7
:102D200001276748006800F48070B0B96448006803
:102D300040F4807062490860FFF746FC054606E0F3
:102D4000FFF742FC401B022801D90320B8E65C488B
:102D5000006800F480700028F2D000BFA06801284D
:102D600008D154486830006840F00100514968318A
:102D700008601DE0A06805280DD14E486830006845
:102D800040F004004B49683108600846006840F094
:102D9000010008600CE047486830006820F001003E
:102DA0004449683108600846006820F00400086063
:102DB00000BFA068A8B1FFF707FC054609E0FFF7D0
:102DC00003FC401B41F28831884202D9032077E698
:102DD00026E0384868300068C0F340000028EED094
:102DE00013E0FFF7F1FB054608E0FFF7EDFB401BA2
:102DF00041F28831884201D9032061E62D486830CC
:102E00000068C0F340000028EFD1012F07D1294806
:102E10003830006820F0805026493831086000BF03
:102E2000A069002845D02348006800F00C0008285D
:102E30005DD0A069022845D100201F490866FFF730
:102E4000C3FB054606E0FFF7BFFB401B022801D984
:102E5000032035E6174808380068C0F340600028B2
:102E6000F1D1D4E907010843616A40EA81110122E6
:102E7000A06AC2EB500041EA00412C20005D41EA0B
:102E800000600C49091F086001200B490866FFF724
:102E90009BFB054606E0FFF797FB401B022801D984
:102EA00003200DE6034808380068C0F3406000289E
:102EB000F1D049E00838024000004742800E474206
:102EC00000700040002021490866FFF77DFB0546A1
:102ED00006E0FFF779FB401B022801D90320EFE54C
:102EE0001B480068C0F340600028F2D12CE0A069C4
:102EF000012800D1E4E51648001D0668A0690128F4
:102F000020D006F48001E06981421BD106F03F0128
:102F1000206A814216D147F6C0703040616AB0EB3A
:102F2000811F0FD106F440310122A06AC2EB50008C
:102F3000B1EB004F06D106F070612C20005DB1EBC3
:102F4000006F01D00120BBE50020B9E50000474239
:102F50000038024010B504460CB9012010BD606A6B
:102F600038B96068B0F5827F00D105E00021E161E9
:102F700002E00021216161610021A16294F8510009
:102F800028B9002084F85000204600F047F80220BD
:102F900084F851002068006820F040002168086033
:102FA000A08800F48270218901F404410843A189BA
:102FB00001F400610843217C01F002010843217DF6
:102FC00001F001010843218B01F400710843217FC6
:102FD00001F0380108432021095D01F08001084318
:102FE000218D01F400510843216808600421A06983
:102FF00001EA104094F8241001F010010843216800
:1030000048602068C06920F400602168C861002021
:103010006065012084F8510000209FE710B586B05C
:103020000446142101A8FDF770FA67492068884218
:103030007ED100BF002000906448006840F48050BA
:10304000624908600846006800F48050009000BFA4
:1030500000BF00BF002000905C481438006840F0BA
:1030600002005A49143908600846006800F002005E
:10307000009000BF00BF00BF00200090084600681D
:1030800040F0010008600846006800F00100009070
:1030900000BF00BF18200190022002900120039081
:1030A000032004900520059001A94948FFF78CF9F9
:1030B00080200190022002900120039003200490C0
:1030C0000520059001A94348FFF77EF9424843498E
:1030D00008604FF0C0604860002140488160C160D6
:1030E0004FF480610161002141618161C1614FF450
:1030F0004031016200214162FFF786F808B1FEF716
:10310000EEF900BF3548E064846300BF32481830F0
:10311000334908604FF0C06048604021304881600A
:103120000021C1604FF4806101610021416100E034
:1031300010E08161C1614FF4003101620021416200
:10314000FFF762F808B1FEF7CAF900BF2448A0648F
:10315000846336E023492068884232D100BF0020D2
:1031600000901A48001F006840F480401749091F6A
:1031700008600846006800F48040009000BF00BF6F
:1031800000BF0020009011481438006840F0020091
:103190000E49143908600846006800F002000090EB
:1031A00000BF00BF4FF46040019002200290012058
:1031B0000390032004900520059001A90448FFF71F
:1031C00003F906B010BD0000003001404438024051
:1031D000000402400000024040640240FC04002061
:1031E0005C050020003800402DE9FF5F044688465A
:1031F00091461D460E9E012002900020019000BFC6
:1032000094F85000012803D1022004B0BDE8F09FDB
:10321000012084F8500000BFFFF7D6F9074694F864
:1032200051B060680390AA46BBF1010F0BD0039820
:10323000B0F5827F04D1A06810B9BBF1040F02D0B1
:1032400002200190DBE0B8F1000F03D0B9F1000FCC
:1032500000D015B901200190D1E094F85100042864
:1032600002D0052084F8510000206065C4F8389031
:10327000E587A587C4F83080E586A586206460646C
:103280002068006800F04000402805D020680068F1
:1032900040F0400021680860E068B0F5006F4AD156
:1032A000606810B1BAF1010F09D1206B0088216864
:1032B000C860206B801C2063E08E401EE08633E0F7
:1032C0002068806800F00200022810D1E08E70B102
:1032D000029801280BD1206B00882168C860206B00
:1032E000801C2063E08E401EE08600200290206853
:1032F000806800F0010068B1E08F58B12068C068B4
:10330000A16B0880A06B801CA063E08F401EE0874B
:1033100001200290FFF758F9C01BB04204D3701C83
:1033200010B1032001906AE0E08E0028C8D1E08F40
:103330000028C5D14AE0606810B1BAF1010F09D187
:10334000206B007821680873206B401C2063E08E9E
:10335000401EE08634E02068806800F00200022809
:1033600010D1E08E70B1029801280BD1206B00784B
:1033700021680873206B401C2063E08E401EE086AD
:10338000002002902068806800F0010068B1E08FA2
:1033900058B12068C068A16B0870A06B401CA06386
:1033A000E08F401EE08701200290FFF70DF9C01B5F
:1033B000B04201D3701C00B916B9032001901EE081
:1033C000E08E0028C7D1E08F0028C4D13A463146AC
:1033D000204604F0D7FB20B1012001902020606539
:1033E0000DE0A06850B900BF002000902068C068C0
:1033F000009020688068009000BF00BF00BF0120DF
:1034000084F8510000BF002084F8500000BF0198EC
:10341000FBE670477047000030B502460B4600BF20
:1034200092F83C00012801D1022030BD012082F831
:103430003C0000BF022082F83D001068446810681C
:10344000816824F070041868044310684460184DC3
:103450001068A8421BD01068B0F1804F17D0154DEE
:103460001068A84213D0144D1068A8420FD0134D15
:103470001068A8420BD0124D1068A84207D0114D19
:103480001068A84203D0104D1068A84205D121F061
:1034900080015868014310688160012082F83D0076
:1034A00000BF002082F83C0000BF00BFBDE7000065
:1034B000000001400004004000080040000C0040F3
:1034C00000040140004001400018004010B50446CF
:1034D0000CB9012010BD94F83D0028B9002084F8F3
:1034E0003C00204600F026F8022084F83D00211D13
:1034F000206804F0E1FC012084F8460000BF84F855
:103500003E0001213F200155402001554120015539
:1035100000BF00BF012084F8420043200155442031
:1035200001554520015500BF012084F83D000020D1
:10353000D0E7000038B504462349206888420FD1FF
:1035400000BF002000902148006840F008001F499B
:1035500008600846006800F00800009000BF32E0F4
:103560001B492068884218D100BF002000901748EE
:10357000006840F02000154908600846006800F027
:103580002000009000BF00BF002205213720FFF778
:10359000DFF83720FFF7CCF815E00E4920688842A5
:1035A00011D100BF002000900848001D006840F4C1
:1035B00000300649091D08600846006800F4003024
:1035C000009000BF00BF38BD000C004040380240F2
:1035D0000014004000440140014691F83D000128DC
:1035E00001D001207047022081F83D000868C068C2
:1035F00040F001000B68D8601A4B086898421BD055
:103600000868B0F1804F17D0174B0868984213D064
:10361000164B086898420FD0154B086898420BD09B
:10362000144B0868984207D0134B0868984203D09F
:10363000124B086898420CD10868806800F00702B5
:10364000062A0CD00868006840F001000B6818607A
:1036500005E00868006840F001000B681860002071
:10366000C0E70000000001400004004000080040E6
:10367000000C0040000401400040014000180040E0
:103680002DE9F04104460D46002700BF94F83C00A8
:10369000012802D10220BDE8F081012084F83C001D
:1036A00000BF022084F83D002068866826F0770677
:1036B00026F47F46206886602868502833D00CDCCA
:1036C000202850D004DC00284BD0102851D149E0EC
:1036D000302849D040284CD139E060282DD07028BE
:1036E00007D0B0F5805F03D0B0F5005F41D10DE0A9
:1036F00041E0D5E902136A68206804F05AFC2068AA
:10370000866846F077062068866034E0D5E90213C3
:103710006A68206804F04DFC2068806840F48040AE
:103720002168886027E0EA686968206804F032FD53
:103730005021206804F048FC1DE0EA6869682068B0
:1037400004F03BFD6021206804F03EFC13E0EA68D1
:103750006968206804F01EFD4021206804F034FCF4
:1037600009E000BF00BF00BF2968206804F02CFCFE
:1037700001E0012700BF00BF012084F83D0000BF29
:10378000002084F83C0000BF384684E7704710B53D
:10379000044620680069C0F34000D8B12068C068C2
:1037A000C0F34000B0B16FF0020021680861012051
:1037B00020772068806900F0030018B12046FFF7E9
:1037C000E5FF05E0204600F02DF9204600F0FAF96B
:1037D0000020207720680069C0F38000D8B12068FD
:1037E000C068C0F38000B0B16FF0040021680861C8
:1037F000022020772068806900F4407018B12046CC
:10380000FFF7C4FF05E0204600F00CF9204600F069
:10381000D9F90020207720680069C0F3C000D8B132
:103820002068C068C0F3C000B0B16FF00800216824
:103830000861042020772068C06900F0030018B1F7
:103840002046FFF7A3FF05E0204600F0EBF82046F6
:1038500000F0B8F90020207720680069C0F300105C
:10386000D8B12068C068C0F30010B0B16FF010008C
:1038700021680861082020772068C06900F4407042
:1038800018B12046FFF782FF05E0204600F0CAF895
:10389000204600F097F9002020772068006900F0AA
:1038A000010058B12068C06800F0010030B16FF02D
:1038B000010021680861204600F00CFA20680069C8
:1038C000C0F3C01058B12068C068C0F3C01030B158
:1038D0006FF08000216808612046FFF79AFD20689C
:1038E0000069C0F3801058B12068C068C0F3801030
:1038F00030B16FF0400021680861204600F0F6F911
:1039000020680069C0F3401058B12068C068C0F357
:10391000401030B16FF02000216808612046FFF7A9
:1039200079FD10BD10B586B00446142101A8FCF73E
:10393000ECFD3549206888421ED100BF0020009070
:103940003248006840F008003049086008460068C6
:1039500000F00800009000BF00BF4FF480400190CD
:10396000022002900020039004900220059001A9FB
:103970002748FEF729FD45E02649206888421FD1E7
:1039800000BF002000902148006840F080001F49DF
:1039900008600846006800F08000009000BF00BF8B
:1039A0004FF4E0500190022002900120039000208B
:1039B00004900220059001A91748FEF705FD21E0BB
:1039C0001649206888421DD100BF002000900F4892
:1039D000006840F020000D4908600846006800F0CB
:1039E0002000009000BF00BF402001900220029004
:1039F00001200390022004900320059001A90848AB
:103A0000FEF7E2FC06B010BD00080040303802406E
:103A1000000C0240000C0040001C02400044014029
:103A20000014024070472DE9F04104460D46164649
:103A3000002700BF94F83C00012802D10220BDE815
:103A4000F081012084F83C0000BF36B1042E1BD069
:103A5000082E31D00C2E5ED145E02946206804F0B6
:103A6000BDFA2068806940F00800216888612068FC
:103A7000806920F0040021688861206880692969D4
:103A800008432168886148E02946206804F0DEFA8E
:103A90002068806940F4006021688861206880693E
:103AA00020F480602168886120688069296940EA83
:103AB00001202168886130E02946206804F004FB79
:103AC0002068C06940F008002168C8612068C069AA
:103AD00020F004002168C8612068C0692969084392
:103AE0002168C86119E02946206804F029FB206894
:103AF000C06940F400602168C8612068C06920F492
:103B000080602168C8612068C069296940EA012095
:103B10002168C86101E0012700BF00BF00BF00208D
:103B200084F83C0000BF384689E710B504460CB95C
:103B3000012010BD94F83D0028B9002084F83C0015
:103B4000204600F025F8022084F83D00211D206861
:103B500004F0B2F9012084F8460000BF84F83E006A
:103B600001213F200155402001554120015500BF52
:103B700000BF012084F84200432001554420015534
:103B80004520015500BF012084F83D000020D0E70A
:103B900008B50A4A016891420FD100BF0021009187
:103BA0000749096841F00401054A11601146096896
:103BB00001F00401009100BF00BF08BD00080040F3
:103BC000403802407047000070B504460D4615B9F4
:103BD00094F83E000BE0042D02D13F20005D06E08A
:103BE000082D02D14020005D01E04120005D012848
:103BF00001D0012070BD1DB9022084F83E000EE006
:103C0000042D03D102213F20015508E0082D03D1E6
:103C100002214020015502E00221412001550122EC
:103C20002946206804F0B4F923492068884203D06B
:103C300022492068884201D1012000E0002028B1FB
:103C40002068406C40F40040216848641A492068AC
:103C500088421BD02068B0F1804F17D018492068E7
:103C6000884213D01749206888420FD0164920682F
:103C700088420BD011492068884207D01349206838
:103C8000884203D01249206888420CD1206880689D
:103C900000F00706062E0CD02068006840F00100F6
:103CA0002168086005E02068006840F00100216894
:103CB000086000209EE70000000001400004014071
:103CC0000004004000080040000C0040004001409B
:103CD0000018004010B5044603492068884201D10D
:103CE000FEF778FC10BD00000004004070477047EC
:103CF000704700002DE9F84F0446206805682068E9
:103D0000C668206847694FF00009CA4605F00F09E8
:103D1000B9F1000F0AD105F0200038B106F02000FB
:103D200020B1204604F0ADFABDE8F88FB9F1000FDC
:103D30007CD007F0010018B906F49070002875D007
:103D400005F0010030B106F4807018B1206C40F02D
:103D50000100206405F0040030B107F0010018B143
:103D6000206C40F00200206405F0020030B107F042
:103D7000010018B1206C40F00400206405F0080038
:103D800048B106F0200010B907F0010018B1206C0E
:103D900040F008002064206C002846D005F0200088
:103DA00028B106F0200010B1204604F06AFA20681D
:103DB0004069C0F3801A206C00F0080010B9BAF115
:103DC000000F2DD0204604F016FA2068406900F05C
:103DD0004000402820D100BF00BF2168143151E8C5
:103DE000001F21F040002168143141E80002002A40
:103DF000F3D100BFA06B50B17548A16B0865A06BF3
:103E0000FEF7CDF888B1A06B016D88470DE0204624
:103E1000FFF76EFF09E009E02046FFF769FF04E0C5
:103E20002046FFF765FF002020647DE7206B012816
:103E300076D105F01000002872D006F0100000289E
:103E4000FAD000BF00200090206800680090206831
:103E50004068009000BF00BF2068406900F040004B
:103E600040285ED1A06B006840681FFA80F8B8F166
:103E7000000F54D0A08D404551DDA4F82E80A06BDA
:103E8000C069B0F5807F43D000BF00BF21680C310E
:103E900051E8001F21F4807021680C3141E80002D4
:103EA000002AF3D100BF00BF00BF2168143151E8E0
:103EB000001F21F001002168143141E80002002AAE
:103EC000F3D100BF00BF00BF2168143151E8001FCB
:103ED00021F040002168143141E80002002AF3D1AA
:103EE00000BF202084F83E000020206300BF00BFF8
:103EF00021680C3151E8001F21F0100021680C31BD
:103F000041E80002002AF3D100BFA06BFDF7F1FFEA
:103F1000A08DE28D801A81B22046FFF7E8FE03E70C
:103F200040E0A08DE18D401A1FFA80F8E08DC0B30B
:103F3000B8F1000F35D000BF00BF21680C3151E847
:103F4000001F21F4907021680C3141E80002002A22
:103F5000F3D100BF00BF00BF2168143151E8001F3A
:103F600021F001002168143141E80002002AF3D158
:103F700000BF202084F83E000020206300BF00BF67
:103F800021680C3151E8001F21F0100021680C312C
:103F900041E80002002AF3D100BF41462046FFF766
:103FA000A6FEC1E605F0800030B106F0800018B131
:103FB000204604F0F9FAB7E605F0400030B106F00B
:103FC000400018B1204604F04CF9ADE600BFABE666
:103FD000E381000810B504460CB9012010BDA069AA
:103FE00000B100E000BF94F83D0028B9002084F83B
:103FF0003C00204600F028F8242084F83D0020688A
:10400000C06820F400502168C860204604F0B6F96A
:104010002068006920F490402168086120684069A8
:1040200020F02A00216848612068C06840F40050F0
:104030002168C86000202064202084F83D0084F8B6
:104040003E000020CAE7000010B586B004461421E7
:1040500001A8FCF75AFA9E492068884256D100BF51
:10406000002000909B48006840F0100099490860CB
:104070000846006800F01000009000BF00BF00BFBD
:104080000020009093481438006840F002009149E5
:10409000143908600846006800F00200009000BF74
:1040A00000BF00BF002000900846006840F00100FB
:1040B00008600846006800F00100009000BF00BFE3
:1040C00080200190022002900020039003200490A1
:1040D0000720059001A98048FEF776F94FF400709B
:1040E00001900220029000200390032004900720FA
:1040F000059001A97948FEF767F9002205212520DE
:10410000FEF726FB2520FEF713FBDEE0744920684E
:1041100088425CD100BF002000906E48001F0068FC
:1041200040F480206B49091F08600846006800F4CD
:104130008020009000BF00BF00BF002000906548B5
:104140001438006840F004006249143908600846D9
:10415000006800F00400009000BF00BF4FF4406012
:104160000190022002900020039003200490072079
:10417000059001A95B48FEF727F95B485B49086099
:104180004FF000604860002158488160C1604FF4E2
:10419000806101610021416181614FF48071C161E1
:1041A0004902016200214162FEF72EF808B1FDF7D5
:1041B00096F900BF4D48A063846300BF002205212B
:1041C0002720FEF7C5FA2720FEF7B2FA7DE048491E
:1041D0002068884279D100BF002000903D480068E7
:1041E00040F020003B4908600846006800F02000CD
:1041F000009000BF00BF00BF002000903548143879
:10420000006840F0400033491439086008460068EF
:1042100000F04000009000BF00BF4FF484400190C8
:1042200002200290002003900320049008200590B3
:1042300001A93048FEF7C8F82F48304908608005CA
:10424000486000212D488160C1604FF480610161A8
:10425000002141618161C1614FF40031016200219F
:104260004162FDF7D1FF08B1FDF739F900BF2348DE
:10427000A063846300BF20487830214908604FF074
:104280002060486040211E4881600021C1604FF4D9
:1042900080610161002141618161C1614FF4803120
:1042A000016200214162FDF7AFFF08B1FDF717F988
:1042B00000BF13486063846300BF002205214720CC
:1042C000FEF746FA4720FEF733FA06B010BD0000AD
:1042D0000010014044380240000402400000024047
:1042E000004800400008024028600240A807002063
:1042F0000014014000180240286402400808002011
:10430000680800207047704700BFFEE786B00720AE
:1043100007F070FF02E0642007F06CFFFCF75EFA24
:104320000028F8D106F0FCFCDFED701A9FED701A42
:10433000DFED700A9FED700A7049714807F0C8F907
:10434000002007F093FF044609F064F96D49086006
:1043500010216D48C16108226C496D4803F052FB81
:1043600001206C490870C0E000BF4FF0FF31012010
:1043700008F02EFE0128F8D16748007800F0080008
:1043800050B16548007820F008006349087063491F
:104390005E48401CFCF7EEF96148007800F004002C
:1043A00060B15F48007820F004005D4908705B4A06
:1043B0000C32A2F11C015B48FCF760F95A48007806
:1043C00000F0040090B15848007820F004005649ED
:1043D00008705249091F5548FCF708FB4F4814382C
:1043E000D0ED040AB0EE600A07F0FAFC4B4814382E
:1043F00090ED050A4E48D0ED000A30EE600A4D48B7
:1044000080ED000A4548143890ED060A4A48D0ED80
:10441000000A30EE600A474880ED010A3F48143830
:1044200090ED070A4548D0ED000A30EE600A414899
:1044300080ED020A39481438D0ED010AB0EE600A66
:10444000DFED3F0A3F4807F01FFA34481438D0ED3B
:10445000020AB0EE600ADFED3A0A3A48001D07F0A2
:1044600013FA2E481438D0ED030AB0EE600ADFEDDF
:10447000340A3448083007F007FA324890ED023A1F
:10448000F0EE432A90ED013AB0EE432A90ED003A67
:10449000F0EE431A274890ED023AB0EE431A90ED41
:1044A000013AF0EE430A90ED003AB0EE430A264896
:1044B00006F07EFC244890ED010A8DED020A90ED95
:1044C000020A8DED030A90ED030A8DED040A90EDCA
:1044D000000A8DED050A00200090012302221B49ED
:1044E000019002A808F076F900BF3DE700007A4489
:1044F00000007AC400A08C4500A08CC57C00002080
:104500001C090020380000204C0400203C00002042
:1045100044000020600000205D00002070090020A1
:104520005E000020120900205F00002057000020DC
:10453000BC00002080090020C0000020C400002032
:104540008FC2753D8C09002098090020A809002021
:104550002DED088B91E1C948407801287BD1C848EE
:104560004068000E00EE100AB8EE400AF0EE408AF5
:10457000C3484068C0F3074000EE100AB8EE400A96
:10458000F0EE40AABE488088C0F3072000EE100A73
:10459000B8EE400AB0EE40BAB948007900EE100A11
:1045A000B8EE400AF0EE40BAB5488068000E00EE62
:1045B000100AF8EE400AB2484068000E00EE100AF9
:1045C000B8EE400A30EEC00AB0EE408AAC488068CF
:1045D000C0F3074000EE100AF8EE400AA848406811
:1045E000C0F3074000EE100AB8EE400A30EEC00AF1
:1045F000B0EE409AA2480089C0F3072000EE100AEE
:10460000F8EE400A9E488088C0F3072000EE100AAA
:10461000B8EE400A30EEC00AF0EE409A9848007AB0
:1046200000EE100AF8EE400A9548007900EE100AF4
:10463000B8EE400A30EEC00AB0EE40AA9FED910AF3
:10464000C8EE000AB0EE608A9FED8F0AC9EE000A3C
:10465000B0EE609A00E033E09FED8B0AC9EE800A6D
:10466000F0EE609A9FED880ACAEE000AB0EE60AAEA
:10467000002522E038EE880AF0EE408ABCEEE80A17
:1046800010EE100A0106BCEEEA0A10EE100A41EA2A
:104690000041BCEECB0A10EE100A41EA0020BCEE4D
:1046A000EB0A10EE101A40EA0106304605F026FD2E
:1046B000012007F09FFD681C85B2642D7EDAD9E7E2
:1046C0000024D7E06D484078012800D1D0E06C4844
:1046D00050F82400000E00EE100AB8EE400AF0EE8A
:1046E000408A674850F82400C0F3074000EE100AE3
:1046F000B8EE400AF0EE40AA614830F82400C0F35A
:10470000072000EE100AB8EE400AB0EE40BA5C484E
:1047100010F8240000EE100AB8EE400AF0EE40BA9D
:104720005749601C51F82000000E00EE100AF8EE08
:10473000400A084650F82400000E00EE100AB8EEB9
:10474000400A30EEC00AB0EE408A601C51F82000EA
:10475000C0F3074000EE100AF8EE400A084650F891
:104760002400C0F3074000EE100AB8EE400A30EE15
:10477000C00AB0EE409A601C31F82000C0F3072058
:1047800000EE100AF8EE400A084630F82400C0F3A4
:10479000072000EE100AB8EE400A30EEC00AF0EE34
:1047A000409A601C11F8200000EE100AF8EE400A52
:1047B000084610F8240000EE100A00E05DE0B8EEB4
:1047C000400A30EEC00AB0EE40AA9FED2F0AC8EEB4
:1047D000000AB0EE608A9FED2C0AC9EE000AB0EE26
:1047E000609A9FED290AC9EE800AF0EE609A9FED6B
:1047F000260ACAEE000AB0EE60AA002534E01F487F
:104800004078012800D12DE038EE880AF0EE408A89
:104810003AEE890AF0EE40AA3BEE290AB0EE40BA21
:104820003BEE8A0AF0EE40BABCEEE80A10EE100A3F
:104830000106BCEEEA0A10EE100A41EA0041BCEEA5
:10484000CB0A10EE100A41EA0020BCEEEB0A10EE93
:10485000101A40EA0106304605F050FC012007F02E
:10486000C9FC00BF681C85B2B5F57A7FC7DB00BF05
:10487000601C84B2062CFFF625AF6CE6FD0000201C
:10488000900000200000C84200007A44018842895C
:10489000891AB1F5805F04DDC189491E09B2C18161
:1048A00009E001884289891A11F5805F03DAC1891C
:1048B000491C09B2C18101884288891A00EE101A88
:1048C000B8EEC00A9FED0B1AC0EE010AB0F90E1047
:1048D00000EE101AB8EEC00A30EE800ADFED060ACC
:1048E00020EE200ADFED050A80EE201A80ED041A82
:1048F00070470000000000460000B4430000104272
:1049000010B50E480E4908600320486000210C488D
:104910008160C1604FF4102101614FF400114161C9
:104920000021017641768176C17601774177FDF7E6
:1049300010F908B1FCF7D3FD10BD00000064004081
:10494000FC03002010B50E480E49086003204860A3
:1049500000210C488160C1604FF4102101614FF4C7
:10496000001141610021017641768176C17601779F
:104970004177FDF7EEF808B1FCF7B1FD10BD00007E
:10498000006800402404002008B500BF002000900B
:104990002248006840F4800020490860084600680A
:1049A00000F48000009000BF00BF00BF0020009016
:1049B0000846006840F4001008600846006800F4EB
:1049C0000010009000BF00BF002205210C20FDF761
:1049D000BFFE0C20FDF7ACFE002205213920FDF7BB
:1049E000B7FE3920FDF7A4FE002205213A20FDF78D
:1049F000AFFE3A20FDF79CFE002205213B20FDF78B
:104A0000A7FE3B20FDF794FE002205214520FDF77F
:104A10009FFE4520FDF78CFE08BD000030380240A7
:104A200000B5B9B01C22304932A8FBF734FD002193
:104A300032A807F0ECFB2D4908601C222A491C31E2
:104A40002BA8FBF728FD00212BA807F0E0FB284945
:104A500008601C222449383124A8FBF71CFD0021E2
:104A600024A807F0D4FB234908601C221E495431B6
:104A70001DA8FBF710FD00211DA807F0C8FB1E496B
:104A800008601C221849703116A8FBF704FD0021AC
:104A900016A807F0BCFB194908601C2212498C318A
:104AA0000FA8FBF7F8FC00210FA807F0B0FB144992
:104AB00008601C220C49A83108A8FBF7ECFC002177
:104AC00008A807F0A4FB0F4908601C220649C4315E
:104AD00001A8FBF7E0FC002101A807F098FB0A49B8
:104AE000086039B000BD00005CE50008000000204F
:104AF00004000020080000200C000020100000200E
:104B000014000020180000201C00002000B587B011
:104B1000142102A8FBF7F9FC00BF002001906148B6
:104B2000006840F002005F4908600846006800F035
:104B30000200019000BF00BF00BF002001900846A6
:104B4000006840F0400008600846006800F040003F
:104B5000019000BF00BF00BF002001900846006820
:104B600040F0010008600846006800F00100019074
:104B700000BF00BF00BF002001900846006840F061
:104B8000080008600846006800F00800019000BFB7
:104B900000BF00BF002001900846006840F00400FC
:104BA00008600846006800F00400019000BF00BFE4
:104BB00000BF002001900846006840F080000860B7
:104BC0000846006800F08000019000BF00BF00BFF1
:104BD000002001900846006840F020000860084668
:104BE000006800F02000019000BF00BF01221021EA
:104BF0002D48FDF7E3FC012241F201012B48FDF7AE
:104C0000DDFC10200290012003900490022005900A
:104C100002A92548FDF7D8FB302002904FF48810F8
:104C200003900120049002A92148FDF7CDFB01204B
:104C300002904FF4881003900020049002A91D48B0
:104C4000FDF7C2FB4FF480500290012003900490C6
:104C5000059002A91548FDF7B7FB012002900390CB
:104C600004900220059002A91048FDF7ADFB002238
:104C700005210620FDF76CFD0620FDF759FD0022F9
:104C800005210A20FDF764FD0A20FDF751FD0022F1
:104C900005211720FDF75CFD1720FDF749FD07B042
:104CA00000BD000030380240000002400004024015
:104CB000000802400018024010B50F480F49086074
:104CC0004FF48270486000210C488160C16002216D
:104CD000016101214161490281613821C1610021E5
:104CE0000162416281620A21C162FEF733F908B1B3
:104CF000FCF7F5FB10BD0000003001404C04002023
:104D000010B50F480F4908604FF4827048600021C9
:104D10000C488160C160016141614FF400718161A3
:104D20003821C161802101620021416281620A2132
:104D3000C162FEF70FF908B1FCF7D1FB10BD00000E
:104D400000380040A404002000B587B01C2168464C
:104D5000FBF7DBFB1548164908600020486000217E
:104D60001348816041F28731C16000210161816196
:104D7000FEF7ACFB08B1FCF7B2FB0D48FEF7D5FE21
:104D800008B1FCF7ACFB602000900020019002907D
:104D90000490002269460648FEF745FE08B1FCF77C
:104DA0009EFB0348FEF7BEFD07B000BD0044014076
:104DB0009406002000B589B00020079008901C21BF
:104DC0006846FBF7A2FB184818490860A72048600E
:104DD0000021164881604FF6FF71C160002101611A
:104DE0008161FEF7A2FE08B1FCF779FB0020079075
:104DF000089007A90D48FEF70FFB08B1FCF76FFB01
:104E000060200090002001900290049008226946E2
:104E10000648FEF708FE08B1FCF761FB0348FEF701
:104E200081FD09B000BD000000080040BC05002065
:104E300000B58DB0002009900A900B900C9007905F
:104E400008901C216846FBF760FB28482849086049
:104E5000002048600021264881604FF6FF71C16044
:104E6000002101618161FEF731FB08B1FCF737FBDE
:104E70004FF48050099009A91D48FEF701FC08B1C4
:104E8000FCF72DFB1A48FEF750FE08B1FCF727FB94
:104E900000200790089007A91548FEF7BDFA08B151
:104EA000FCF71DFB60200090002001900290049010
:104EB000002269460E48FEF7B6FD08B1FCF70FFB6D
:104EC000042269460A48FEF7AEFD08B1FCF707FB6D
:104ED000082269460648FEF7A6FD08B1FCF7FFFA6E
:104EE0000348FEF71FFD0DB000BD0000000C0040A0
:104EF000040600201CB50020009001900E480F49C8
:104F000008605320486000210C4881604FF47A719A
:104F1000C16000218161FEF7D9FA08B1FCF7DFFA20
:104F200000200090019069460448FEF775FA08B128
:104F3000FCF7D5FA1CBD0000001400404C06002010
:104F400010B50B480B4908604FF4E1304860002170
:104F500008488160C16001610C21416100218161CB
:104F6000C161FFF737F808B1FCF7B9FA10BD0000CE
:104F700000100140DC06002010B50B480B4908600A
:104F80000B484860002109488160C1604FF480618E
:104F900001610C21416100218161C161FFF71AF8B3
:104FA00008B1FCF79CFA10BD004800402007002023
:104FB000A086010010B50B480B4908604FF4E130A2
:104FC0004860002108488160C16001610C21416195
:104FD00000218161C161FEF7FDFF08B1FCF77FFA96
:104FE00010BD0000001401406407002000BFFEE770
:104FF00000BFFEE700B102B97047017092ED001AE0
:1050000080ED011A92ED011A80ED021A92ED021A5A
:1050100080ED031A80ED040AC0ED050A9FED0C1A1D
:1050200080ED0E1A80ED0D1A80ED0C1A9FED081A16
:1050300080ED081A80ED0B1A80ED0A1A80ED091A2E
:1050400080ED111A80ED101A80ED0F1A00BFD3E722
:10505000000000000A2008F0F3F80120174908704A
:105060002AE01748A0F131018A6A0260CA6A4260E8
:1050700091F830100172093802F026FE00F024F891
:1050800000240EE00E480938015D0930005D8142C0
:1050900005D0FDF799FA0A493139486203E0601CEE
:1050A000C4B2092CEEDB00BF0A2008F0C9F80020CA
:1050B00007F0D6FF03490860D3E70000DC000020BA
:1050C000E5090020D800002010B555480088412887
:1050D0005DD0732802D0792879D100E000BF00208C
:1050E00019E00146C31700EB5373DB10DB1C4C4C7B
:1050F0002834E35C0246C41700EB5474E410A0EBC0
:10510000C404234103F0010383F00104444B9B1CBE
:105110001C54411CC8B21028E3DB414890F82D0014
:10512000803800EE100AB8EEC00ADFED3E0A80EECD
:10513000201A3B4880ED051A90F82E007F3800EECB
:10514000100AB8EEC00ADFED370A80EE201A3448A4
:1051500080ED061A90F82F00803800EE100AB8EEA5
:10516000C00ADFED300A80EE201A2D4880ED071AC4
:1051700090F830007F3800EE100AB8EEC00ADFED7C
:10518000290A80EE201A264880ED081A46E0002001
:1051900019E00146C31700EB5373DB10DB1C204CF6
:1051A0002834E35C0246C41700EB5474E410A0EB0F
:1051B000C404234103F0010383F00104184B9B1C3A
:1051C0001C54411CC8B21028E3DB00200AE00CE0AC
:1051D0009FED150A1249143101EB800181ED000A9F
:1051E000411CC8B20428F3DB18E0002009E09FED61
:1051F0000E0A0B49143101EB800181ED000A411CBC
:10520000C8B20428F3DB002005E000220449891C11
:105210000A54411CC8B21028F7DB00BF00BF10BD04
:10522000B4090020000000430000000010B5234B2B
:105230001B685B6943F04003204C246863611F4B8B
:105240001B68DB6843F010031C4C2468E3601C4BB4
:105250001B681B6823F00103194C2468236007E0D6
:10526000174B1B681B6823F00103154C246823604F
:10527000134B1B681B6803F00103002BF0D1114B8B
:105280000F4C2468A3600E4B1B68D8600C4B1B6846
:1052900019610B4B1B685A60094B1B681B6843F470
:1052A0008023074C24682360054B1B681B6843F070
:1052B0000103034C2468236010BD00002007002078
:1052C000A80700200448004010B5FB4B1B681B6872
:1052D00023F00103F84C24682360F84B1B681B681B
:1052E00023F00103F54C2468236007E0F24B1B68B0
:1052F0001B6823F00103F04C24682360EE4B1B680D
:105300001B6803F00103002BF0D107E0EB4B1B6897
:105310001B6823F00103E94C24682360E74B1B68FA
:105320001B6803F00103002BF0D1E54BDB6C1B681D
:10533000E44CA34275D9E24BDB6C1B68E24CA34200
:1053400001D1202368E0DE4BDB6C1B68DD4C483C60
:10535000A34201D120235FE0D94BDB6C1B68DA4C00
:105360006034A34201D1202356E0D54BDB6C1B688F
:10537000D44C1834A34201D120234DE0D04BDB6C38
:105380001B68D14C1834A34201D1DB1444E0CC4B50
:10539000DB6C1B68CB4C303CA34201D1DB143BE0FF
:1053A000C74BDB6C1B68C84C7834A34201D1DB14BB
:1053B00032E0C34BDB6C1B68C24C3034A34201D1DA
:1053C000DB1429E0BE4BDB6C1B68BF4C3034A342BE
:1053D00002D14FF400131FE0B94BDB6C1B68B94CD2
:1053E000183CA34202D14FF4001315E0B44BDB6C20
:1053F0001B68B54C9034A34202D14FF400130BE06C
:10540000AF4BDB6C1B68AF4C4834A34202D14FF466
:10541000001301E04FF00063AA4C4C3C236076E19E
:10542000FFE7A74BDB6C1B68A74CA834A34275D9D8
:10543000A34BDB6C1B68A44CA34201D1202369E081
:105440009F4BDB6C1B689F4C483CA34201D120233F
:1054500060E09B4BDB6C1B689B4C6034A34201D12A
:10546000202357E0964BDB6C1B68964C1834A34204
:1054700001D120234EE0924BDB6C1B68924C183418
:10548000A34201D1DB1445E08D4BDB6C1B688D4CD6
:10549000303CA34201D1DB143CE0894BDB6C1B6840
:1054A000894C7834A34201D1DB1433E0844BDB6CAC
:1054B0001B68844C3034A34201D1DB142AE0804BBA
:1054C000DB6C1B68804C3034A34202D14FF40013D4
:1054D00020E07B4BDB6C1B687A4C183CA34202D16A
:1054E0004FF4001316E0764BDB6C1B68764C90345F
:1054F000A34202D14FF400130CE0714BDB6C1B682C
:10550000704C4834A34203D14FF4001302E005E08D
:105510004FF000636B4C503C2360F8E0684BDB6C51
:105520001B68694C4834A34275D9654BDB6C1B681A
:10553000654CA34201D1202368E0614BDB6C1B6802
:10554000604C483CA34201D120235FE05C4BDB6C04
:105550001B685D4C6034A34201D1202356E0584BB8
:10556000DB6C1B68574C1834A34201D120234DE05B
:10557000534BDB6C1B68544C1834A34201D1DB1431
:1055800044E04F4BDB6C1B684E4C303CA34201D1D6
:10559000DB143BE04A4BDB6C1B684B4C7834A3427A
:1055A00001D1DB1432E0464BDB6C1B68454C3034D8
:1055B000A34201D1DB1429E0414BDB6C1B68424C58
:1055C0003034A34202D14FF400131FE03C4BDB6C9C
:1055D0001B683C4C183CA34202D14FF4001315E069
:1055E000374BDB6C1B68384C9034A34202D14FF42C
:1055F00000130BE0324BDB6C1B68324C4834A34287
:1056000002D14FF4001301E04FF000632E4C103C28
:10561000E3607CE0FFE72A4BDB6C1B682A4CA3426B
:1056200001D1202370E0264BDB6C1B68254C483CE5
:10563000A34201D1202367E0214BDB6C1B68224C85
:105640006034A34201D120235EE01D4BDB6C1B685C
:105650001C4C1834A34201D1202355E0184BDB6CBD
:105660001B68194C1834A34201D1DB144CE0144BD5
:10567000DB6C1B68134C303CA34201D1DB1443E0CC
:105680000F4BDB6C1B68104C7834A34201D1DB1448
:105690003AE00B4BDB6C1B680A4C3034A34201D15F
:1056A000DB1431E0064BDB6C1B68074C3034A34243
:1056B0000CD14FF4001327E0FC0400205C0500200F
:1056C0004C0400205864024010600240F74BDB6C31
:1056D0001B68F74CA34202D14FF4001314E0F34BC4
:1056E000DB6C1B68F34CA34202D14FF400130BE0B8
:1056F000EE4BDB6C1B68EE4C6034A34202D14FF4DE
:10570000001301E04FF00063EA4CA03CA360E74BBC
:10571000DB6C1B68E64C1834A34274D9E34BDB6C9A
:105720001B68E44C903CA34201D1102366E0DF4BA0
:10573000DB6C1B68DE4C303CA34201D110235DE0E2
:10574000DA4BDB6C1B68DB4C303CA34201D11023ED
:1057500054E0D64BDB6C1B68D54C3034A34201D1EE
:1057600010234BE0D14BDB6C1B68D24C783CA3423E
:1057700001D11B1542E0CD4BDB6C1B68CC4C183CB7
:10578000A34201D11B1539E0C84BDB6C1B68C94C27
:10579000183CA34201D11B1530E0C44BDB6C1B68E5
:1057A000C34C4834A34201D11B1527E0BF4BDB6C2F
:1057B0001B68C04C603CA34202D14FF480131DE033
:1057C000BA4BDB6C1B68BA4CA34202D14FF4801376
:1057D00014E0B64BDB6C1B68B64CA34202D14FF40D
:1057E00080130BE0B14BDB6C1B68B14C6034A342FF
:1057F00002D14FF4801301E04FF08063AC4C343C95
:10580000236070E1FFE7A94BDB6C1B68A94C1834DF
:10581000A34274D9A54BDB6C1B68A64C903CA342F9
:1058200001D1102366E0A14BDB6C1B68A04C303C1F
:10583000A34201D110235DE09C4BDB6C1B689D4CA7
:10584000303CA34201D1102354E0984BDB6C1B6821
:10585000974C3034A34201D110234BE0934BDB6CC7
:105860001B68944C783CA34201D11B1542E08F4B3E
:10587000DB6C1B688E4C183CA34201D11B1539E030
:105880008A4BDB6C1B688B4C183CA34201D11B1567
:1058900030E0864BDB6C1B68854C4834A34201D159
:1058A0001B1527E0814BDB6C1B68824C603CA342DC
:1058B00002D14FF480131DE07C4BDB6C1B687C4CE9
:1058C000A34202D14FF4801314E0784BDB6C1B68C9
:1058D000784CA34202D14FF480130BE0734BDB6C86
:1058E0001B68734C6034A34202D14FF4801301E073
:1058F0004FF080636E4C383C2360F4E0FFE76B4B65
:10590000DB6C1B686B4C483CA34274D9674BDB6C67
:105910001B68684C903CA34201D1102366E0634BA6
:10592000DB6C1B68624C303CA34201D110235DE06C
:105930005E4BDB6C1B685F4C303CA34201D11023F3
:1059400054E05A4BDB6C1B68594C3034A34201D1F4
:1059500010234BE0554BDB6C1B68564C783CA34244
:1059600001D11B1542E0514BDB6C1B68504C183CBD
:10597000A34201D11B1539E04C4BDB6C1B684D4C2D
:10598000183CA34201D11B1530E0484BDB6C1B686F
:10599000474C4834A34201D11B1527E0434BDB6C35
:1059A0001B68444C603CA34202D14FF480131DE0BD
:1059B0003E4BDB6C1B683E4CA34202D14FF480137C
:1059C00014E03A4BDB6C1B683A4CA34202D14FF413
:1059D00080130BE0354BDB6C1B68354C6034A34205
:1059E00002D14FF4801301E04FF08063314CA03CB2
:1059F000E36078E0FFE72D4BDB6C1B682D4C903C9F
:105A0000A34201D110236BE0284BDB6C1B68284CB0
:105A1000303CA34201D1102362E0244BDB6C1B68B5
:105A2000244C303CA34201D1102359E01F4BDB6CC6
:105A30001B681F4C3034A34201D1102350E01B4B94
:105A4000DB6C1B681B4C783CA34201D11B1547E063
:105A5000164BDB6C1B68164C183CA34201D11B157E
:105A60003EE0124BDB6C1B68124C183CA34201D188
:105A70001B1535E00D4BDB6C1B680D4C4834A34205
:105A800001D11B152CE0094BDB6C1B68094C603CF9
:105A9000A34202D14FF4801322E0044BDB6C1B685D
:105AA000034CA34208D14FF4801319E04C040020AA
:105AB00040640240A0600240F74BDB6C1B68F74C6F
:105AC000A34202D14FF480130AE0F34BDB6C1B6856
:105AD000F34CA34202D14FF4801301E04FF08063F6
